:020000040800F2
:10000000680600208901000891010008930100089A
:100010009501000897010008990100080000000000
:100020000000000000000000000000009B0100082C
:100030009D010008000000009F010008A1010008C8
:10004000A3010008A3010008A3010008A301000800
:10005000A3010008A3010008A3010008A3010008F0
:10006000A3010008A3010008A3010008A3010008E0
:10007000A3010008A3010008A3010008A3010008D0
:10008000A3010008A3010008A3010008A3010008C0
:10009000A3010008A3010008A3010008A3010008B0
:1000A000A3010008A3010008A3010008A3010008A0
:1000B000A3010008A3010008A3010008A301000890
:1000C000A3010008A3010008A3010008A301000880
:1000D000A3010008A3010008A3010008A301000870
:1000E000A3010008A3010008A301000800F002F822
:1000F00000F03AF80AA090E8000C82448344AAF188
:100100000107DA4501D100F02FF8AFF2090EBAE885
:100110000F0013F0010F18BFFB1A43F0010318473B
:100120004005000060050000103A24BF78C878C17F
:10013000FAD8520724BF30C830C144BF04680C60ED
:10014000704700000023002400250026103A28BF35
:1001500078C1FBD8520728BF30C148BF0B60704739
:100160001FB51FBD10B510BD00F031F81146FFF7E7
:10017000F7FF00F05FFA00F04FF803B4FFF7F2FF6B
:1001800003BC00F057F800000948804709480047C1
:10019000FEE7FEE7FEE7FEE7FEE7FEE7FEE7FEE737
:1001A000FEE7FEE704480549054A064B7047000094
:1001B0009D050008ED00000868000020680600208A
:1001C000680200206802002070477047704775463B
:1001D00000F02CF8AE4605006946534620F00700B3
:1001E000854618B020B5FFF7DDFFBDE820404FF091
:1001F00000064FF000074FF000084FF0000BAC4630
:10020000ACE8C009ACE8C009ACE8C009ACE8C0097A
:1002100021F007018D46704710B50446AFF300800A
:100220002046BDE81040FFF7A8BF00000048704717
:100230000800002001491820ABBEFEE7260002009E
:10024000704700002DE9F041CA7802F00F0CD30688
:1002500044BF8B784CEA030C09880B0621D0056853
:1002600000234FF001084FF00F0E002608E000BFFA
:10027000282A08BF47610136082E03F104030FD076
:1002800008FA06F70F42F6D00EFA03F425EA040442
:100290000CFA03F5482A45EA0405E9D10761EAE7C3
:1002A0000560B1F5807F38BFBDE8F0814468002368
:1002B0004FF4807E4FF00F08002607E0282A08BF81
:1002C00047610136082E03F1040310D00EFA06F739
:1002D00007EA0105BD42F4D108FA03F5AC430CFA74
:1002E00003F5482A44EA0504E8D10761E9E74460D8
:1002F000BDE8F081002941F21C01C4F202010A6844
:100300000CBF22EA0000104308607047002941F248
:100310001801C4F202010A680CBF22EA000010436F
:10032000086070470288002942F0400308BF22F0AD
:100330004003038070470000F0B587B0044643F6E1
:100340000000C4F20000844223D043F20000C4F253
:10035000010084424CD141F204000121FFF7D6FF95
:10036000A02040F60005C1F60300C4F2010506AE68
:10037000069028463146FFF765FF4020ADF818008B
:1003800004208DF81B0028463146FFF75BFF102044
:1003900025E008200121FFF7B9FF4FF4804001213B
:1003A0004FF48047FFF7A6FF4AF20000C1F60300B2
:1003B000069040F60000C4F2010000F5806506AE2C
:1003C00028463146FFF73EFF04208DF81B002846E3
:1003D0003146ADF81870FFF735FF4FF48050ADF897
:1003E000180010208DF81B0006A92846FFF72AFFE9
:1003F0000020ADF80C0002904FF0827001904FF495
:10040000E020CDF8120040F20020C0F23000CDF81C
:100410000E0001A9204600F00DF820460121FFF74B
:1004200081FF07B0F0BD00000089084018BF01201F
:10043000704700002DE9F04102880B8802F4415C0E
:100440004A88B1F804E043EA0C03CC881A430D89CA
:1004500042EA0E024E8922438F892A43B1F80E8068
:1004600032433A4342EA08020280828B22F400625D
:100470008283098A0182BDE8F0810000B0B50D4693
:10048000044600BF20460221FFF7CEFF0028F9D026
:10049000A58100BF20460121FFF7C6FF0028F9D043
:1004A000A089C0B2B0BD000080B500F001F880BDE9
:1004B00082B041F204000021C4F2020001910091D7
:1004C00050F8041C41F4803140F8041C50F8041C1E
:1004D00001F400310091019901310191009919B99C
:1004E0000199B1F5A06FF1D150F8041C890354BFF4
:1004F0000021012100910099012936D142F2000129
:10050000C4F202010A6842F010020A600A6822F08E
:1005100007020A600A6842F002020A60016801608C
:1005200001680160016841F480610160016821F4A3
:100530007C110160016841F4E811016050F8041C6D
:1005400041F0807140F8041C50F8041C8901FBD56F
:10055000016821F003010160016841F002010160BE
:10056000016801F00C010829FAD102B070470000BF
:10057000704700004EF210010138CEF200014860D1
:100580000020886005200860704700004EF21000CF
:10059000CEF20000002101607047000080B541F2FA
:1005A0000000C4F202000168002241F00101016074
:1005B0004168CFF6FF021140416001684FF6FF72BB
:1005C000CFF6F66211400160016821F480210160DC
:1005D000416821F4FE0141604FF41F018160FFF783
:1005E00063FF4EF60850CEF200004FF0006101604C
:1005F00080BD000010B540F20001C2F200010968A0
:1006000044F6D352C1F26202A1FB021204469009E1
:10061000FFF7B0FF54B14EF210010020CEF20001FE
:100620000A68D203FCD50130A042F9D1FFF7AEFF32
:1006300010BD000043F20004C4F20104FFF7AEFF56
:10064000FFF796FF2046FFF777FE00BF2046A32165
:10065000FFF714FF4FF47A70FFF7CCFFF6E70000C6
:1006600080060008000000200800000028010008A3
:100670008806000808000020600600004401000809
:0806800000A24A040000000082
:04000005080000ED02
:00000001FF
